:100000000C941B070C9438070C9438070C94380791
:100010000C9438070C9438070C9438070C94380764
:100020000C9438070C9438070C9442170C94701DEC
:100030000C94972E0C9438070C9438070C943807BE
:100040000C9438070C9438070C9438070C94380734
:100050000C9438070C941B180C9438070C94380730
:100060000C9438070C9438070C9438070C94380714
:100070000C9438070C9438070C9438070C94380704
:100080000C9438070C9438070C9438070C943807F4
:100090000C9438070C9438070C9438070C943807E4
:1000A0000C9438070C9438070C94380705010902A2
:1000B000A10185020901A100050919012905150001
:1000C00025019505750181029501750381010501E1
:1000D000093009311581257F950275088106093897
:1000E0001581257F950175088106050C0A380215D2
:1000F00081257F950175088106C0C005010980A191
:1001000001850319012AB700150126B7009501756D
:10011000108100C0050C0901A101850419012AA064
:1001200002150126A002950175108100C005010984
:1001300006A1018506050719E029E71500250195A7
:1001400008750181020507190029EF1500250195A1
:10015000F0750181020508190129059505750191C0
:1001600002950175039101C00660FF0961A10109B3
:1001700062150026FF0095207508810209631500AD
:1001800026FF00952075089102C005010906A1010E
:10019000050719E029E71500250195087501810279
:1001A0009501750881010507190029FF150026FF33
:1001B0000095067508810005081901290595057542
:1001C000019102950175039101C000DA0281FFD906
:1001D000F1DB20A4A62EAF00A0C000A1C800AED5C0
:1001E00080A81FD300408D14200000047F3F1F64AF
:1001F0003214643214783C1E1E140A0500000000FC
:1002000000000000000000000000000000000000EE
:1002100000000000000000000000000000000000DE
:1002200000000000000000000000000000000000CE
:1002300000000000000000000000000000000000BE
:1002400000000000000000000000000000000000AE
:10025000000000000000000000000000000000009E
:1002600000000000C0602030B090B0B02060C080BE
:10027000000000000000000000000000000000007E
:1002800000000000000000E0E0E0E0E0E0E0E0E08E
:10029000E0E0E0E0E0E0E0E0E0E0E0E000000000DE
:1002A00000000080F0F0F87838787878F0F0E0C05E
:1002B000808000000000F8F8F80000000000000056
:1002C00080E0F0F87878787870F0E0F0F07878787E
:1002D000787878F8F0E0000000000000000000707E
:1002E000F0F0F0F0F0F0F3F1F1F1F1F1F3F2F0F001
:1002F000F0F0F0702000000000000000000000009E
:100300000000000000000000010F0F0F00000000BF
:1003100000000000000000000000000000000000DD
:1003200000000001070F1F1E1E1C1C00000001031F
:10033000070F0F0E1E1E1F1F1F00000000000000F1
:1003400001070F1F1E1C1C00000303030100001CFB
:100350001C1C1E1F0F070000000000000000000012
:1003600000010307FFFFFFFFFFFFFFFFFFFFFF0786
:100370000301000000000000000000000000000079
:10038000000000000000000000000000000000006D
:10039000000000000000000000000000000000005D
:1003A000000000000000000000000000000000004D
:1003B000000000000000000000000000000000003D
:1003C000000000000000000000000000000000002D
:1003D000000000000000000000000000000000001D
:1003E00000000000030707070707070707070300C8
:1003F00000000000000000000000000000000000FD
:1004000000000000000000000000000000000000EC
:1004100000000000000000000000000000000000DC
:100420000000008080C0C0C0C0C0C0C0C0C0C080CC
:10043000800000000000000000000000000000003C
:1004400000000000000000000000000000000000AC
:10045000000000000000000000000000000000801C
:10046000800000000000000078780000000000001C
:1004700000008000000000000000000000000000FC
:100480000000000000C0C0C0C0C0C0C0C0C0C0C02C
:10049000C0C0C0C0000000C0C0C00000000000001C
:1004A00000FCFF9F070301FDFDF939393939397B1C
:1004B000FFFF1C00020EFEFCE00000000000003800
:1004C00038383878FCFC7070707070F8F8F8E0E03C
:1004D000E0E0E0E00000000000000000808080809C
:1004E0000103C2F0381C0C06060606060C1CF8E0D8
:1004F00003038180808000000000000000000000F5
:1005000000000000000303030303030303030303CA
:1005100001010101000000030303000000000000CE
:1005200000071F3F7C78F1E3E7C7CFCECECECECF1A
:10053000CFCFE7E0F07C3F1F010000000000000784
:100540000707070F1F1F0F0E0E0E0E1F3F3F0E0E49
:100550000C1C1C1C00000000000000000101010137
:1005600080C0C30F1F3F7F7F7F7F7F7F3F3F1F077D
:10057000C0C0810101010000000000000000000077
:10058000000000000000000000000000000000006B
:10059000000000000000000000000000000000005B
:1005A0000000000000000000010101010101010143
:1005B0000101010000000000000000000000000038
:1005C000000000000000000000000000000000002B
:1005D000000000000000000000000000000000011A
:1005E00001010000000000001E1E000000000000CD
:1005F00000010101000000000000000000000000F8
:10060000C0C0C0C0C0C0C0C0C0C0C0000000C0C02A
:10061000C0C0C0C0000000C0C0C0C0C0C0C000009A
:10062000C0C0C0C0C0C0C0C0C0C08000000080C08A
:10063000C0C0C0C0C0800000C0C0C0C0C00000C0FA
:10064000C0C0C0C0C0C0C0C0C0C0C0C0C000C0C06A
:10065000C0C0C0C0C0C0C0C0C0C0C00080C0C0C09A
:10066000C0C0C0C0C0C0C0C0C0C00000C0C0C0C00A
:10067000C0C0C0C0C0C0C0C0C0C00000000000FCFE
:10068000FFFFFFFFFF0FFFFFFFFFFFF0000007FF6F
:10069000FFFFFFFFFE0080FFFFFFFFFF3F0080FE28
:1006A000FFFFFFFFFF1FFFFFFFFFFFE00000FFFF57
:1006B000FFFFFFFFFFFFFCE0FFFFFFFFFF00000762
:1006C0000707FFFFFFFFFFFFFF0707070100FFFF0F
:1006D000FFFFFFFFE7E7E7E7E7E70300FFFFFFFFB5
:1006E000FFFFFFE7E7E7E7E7E7C7800007070787C0
:1006F000C7E7FFFFFFFFFFFFDF0700000080FEFFEF
:10070000FFFFFFFF3F3E3FFFFFFFFFFFFC00000139
:100710007FFFFFFFFFF0FFFFFFFFFF0F00E0FFFF86
:10072000FFFFFFFF3F3E7FFFFFFFFFFFF800FFFFE0
:10073000FFFFFFFF073FFFFFFFFFFFFFFF0000007E
:100740000000FFFFFFFFFFFFFF0000000000FFFFB2
:10075000FFFFFFFFE3E3E3E3E3E3E000E3E3E3E3DF
:10076000E3E3E3E3FFFFFFFFFFFFFF00E0E0E0E381
:10077000E3E3E3FFFFFFFFFFFFFF000000030303CE
:10078000030303030000000303030303030000004B
:100790000003030303030303030303000003030332
:1007A0000303030300000003030303030300010327
:1007B000030303030000010303030303030000001A
:1007C000000003030303030303000000000003030E
:1007D00003030303030303030303030001030303EE
:1007E00003030303030303030301000003030303E1
:1007F000030303030303030303000000FD377A58D8
:100800005A000004E6D6B44602002101160000009A
:10081000742FE5A3E002FB01235D003D8889C654E7
:1008200036C3174FE4DBA0D820B23937B4D0A39E2B
:10083000B28FCECA748E03B6651099F78362F9DC65
:10084000E34A6616AF32717885AE92E34D79563C35
:1008500042D99A446274317EEE15D499E52F803BDB
:1008600074356F2FCFBF8C79BC80D32E0124541CDC
:10087000EC60BD4450E243CB86742CAFC8A98F22F4
:10088000E0C87C987E92F70AE63B717EF7264A6DB7
:100890003781FCD751D5755388E0A51AC0D4A9FA81
:1008A00070F866CCB18B98BCFC7C34422D49210495
:1008B0008C982E6ACF01B5AF24F9A8F72775FCD024
:1008C000224CAAC7EAE490592479F6DDF263198034
:1008D000A452156557DEF5BC6E0C7E0F658938B4E1
:1008E00066966D3414E73CDC8A0A4094C3A2AA17CA
:1008F000431C642BF8EC671451124583F702D6C8E9
:1009000043A10403991126FE43C3BE83D8ABE5F986
:1009100082AC69036D024C3935DFECA095C4221B13
:10092000F6F0190698AC8AA1A8EECB4794DCD7580C
:1009300048B15F55A4A0CF8B722F340B9D420000AD
:10094000BAF34DD5981A7D9F0001BF02FC05000047
:10095000E94D7298B1C467FB020000000004595AC7
:100960000001010101010101010102020202020272
:100970000202020303030303030303040404040445
:10098000040405050505050606060606070707070C
:100990000708080808090909090A0A0A0B0B0B0CC1
:1009A0000C0C0D0D0D0E0E0E0F0F0F10101111115E
:1009B00012121313141415151616171718181919DF
:1009C0001A1A1B1B1C1D1D1E1E1F20202122222344
:1009D0002424252626272829292A2B2C2D2D2E2F85
:1009E00030313232333435363738393A3B3C3D3E9C
:1009F0003F404142434445464748494A4C4D4E4F8B
:100A000050515354555658595A5B5D5E5F6162644C
:100A1000656668696B6C6D6F7072737577787A7BD9
:100A20007D7E8082838587888A8C8E8F9193959630
:100A3000989A9C9EA0A2A3A5A7A9ABADAFB1B3B550
:100A4000B7BABCBEC0C2C4C6C9CBCDCFD1D4D6D82C
:100A5000DBDDDFE2E4E7E9EBEEF0F3F5F8FAFDFFCA
:100A6000FFAA7F55402223252628292A2C2D2F3006
:100A700032333536383A3B3D3E4042434547494A9A
:100A80004C4E5051535557595A5C5E6062646668CB
:100A9000696B6D6F71737577797B7D7F81838587D6
:100AA000898A8C8E90929496989A9C9E9FA1A3A5D9
:100AB000A7A8AAACAEAFB1B3B4B6B8B9BBBCBEBF01
:100AC000C1C2C3C5C6C7C9CACBCCCDCED0D1D2D284
:100AD000D3D4D5D6D7D7D8D9D9DADADBDBDBDCDC8F
:100AE000DCDCDCDDDDDDDDDCDCDCDCDCDBDBDBDA47
:100AF000DAD9D9D8D7D7D6D5D4D3D2D2D1D0CECDB2
:100B0000CCCBCAC9C7C6C5C3C2C1BFBEBCBBB9B8BE
:100B1000B6B4B3B1AFAEACAAA8A7A5A3A19F9E9C43
:100B20009A98969492908E8C8A89878583817F7D0E
:100B30007B79777573716F6D6B6968666462605EEF
:100B40005C5A5957555351504E4C4A4947454342B8
:100B5000403E3D3B3A3836353332302F2D2C2A2952
:100B600028262523224B004E00A900AA006A00690E
:100B700000290014001A000800150017001C0018B6
:100B8000000C00120013002A002F0030002B00047C
:100B9000001600070009000A000B000D000E000FF0
:100BA00000330034002D002E00D75C1D001B000612
:100BB000001900050011001000360037003800D879
:100BC0005C31002800E0000000E200E30002512C4C
:100BD000002C0001510000C25C5000510052004F37
:100BE0000035001E001F00200021002200230024E9
:100BF00000250026002700010001004C0001000133
:100C000000010001000100010001000100010001DC
:100C100000010001000100010001000100010001CC
:100C200000010001000100010001000100010001BC
:100C300000010001000100000001000100010001AD
:100C400000010001000000005C0100010001000142
:100C50000035021E021F022002210222022302246A
:100C600002250226022702010001004C00010001BA
:100C7000000100010001000100010001000100016C
:100C8000000100010001000100010001000100015C
:100C9000000100010001000100010001000100014C
:100CA000000100010001000000010001000100013D
:100CB00000010001000000005C01000100010001D2
:100CC0000000AF00AE0000000000000000000000C7
:100CD0000000000000000000000000000000000014
:100CE0000000000000000000007E0F00D4FFFFFFA6
:100CF000C70000007800000000000000002A2B2838
:100D000000000000000000000000000000000000E3
:100D100029000000002C1E342021222434262725FF
:100D20002E362D3738271E1F202122232425263337
:100D300033362E37381F0405060708090A0B0C0D39
:100D40000E0F101112131415161718191A1B1C1D4B
:100D50002F3130232D350405060708090A0B0C0D29
:100D60000E0F101112131415161718191A1B1C1D2B
:100D70002F3130354C09025B00030100A0FA090451
:100D800000000103010100092111010001224000BE
:100D900007058103080001090401000203000000A7
:100DA0000921110100012222000705820320000110
:100DB00007050303200001090402000103000000ED
:100DC00009211101000122BC000705840320000154
:100DD00012010002000000080DD0530000010102C2
:100DE00003011C037600690061006C003A00660094
:100DF00036003400630032006200330063000000FC
:100E000012036100760061006E0074006500350019
:100E1000330000001C034D0069006300680065009A
:100E20006C006500200046006500720072006900D9
:100E300000000403090411241FBECFEFDAE0DEBF77
:100E4000CDBF11E0A0E0B1E0E6E2F6E702C0059018
:100E50000D92AE3BB107D9F726E0AEEBB1E001C091
:100E60001D92A03EB207E1F70E94BE2E0C94ED3A0F
:100E70000C940000CF93DF934091DE065091DF0683
:100E80004E5D54409A013E5F21303240C0F020E078
:100E900032E0241B350B6091DC047091DD04FC0111
:100EA000CA01240F351FC1E0D0E08217930750F02C
:100EB0007093DD046093DC04DF91CF91089520E00E
:100EC00032E0E9CF4491DC01A252BB4F5C9145175F
:100ED00081F04C93AC01A5E056954795AA95E1F7B2
:100EE000DE0102C0AA0FBB1F4A95E2F7AD016A2BD3
:100EF000752B01963196D9CFE8EDF0E080818E7F99
:100F000080831092E2001092DA001092E100A0EECD
:100F1000B0E08C9181608C9380818F77808319BC45
:100F2000A7EDB0E08C918E7F8C9380818F7E808343
:100F30001092A90408952091E4003091E50095E60F
:100F4000A9012091EC00822F817020FF06C08091C2
:100F5000E80080FF06C080E008952091E80022FDAF
:100F60001AC08091CE04882389F0853089F0809161
:100F7000EB0085FD0FC02091E4003091E5004217A1
:100F80005307F9F29150E1F684E0089582E0089564
:100F900083E0089581E00895EF92FF920F931F93ED
:100FA000CF937C018B010E949B07C82F811117C032
:100FB0008091E80085FD0BC08091E8008E778093DA
:100FC000E8000E949B07882399F3C82F08C0F70107
:100FD00081917F018093F1000150110949F78C2F15
:100FE000CF911F910F91FF90EF9008958091D004C1
:100FF00087FF13C08091E80082FF06C08091E8005F
:101000008B778093E80004C08091CE048111F2CFE9
:1010100008958091CE048823D9F38091E80080FF61
:10102000F8CF8091E8008E77ECCF982F9093E9006D
:10103000242F762F50E0891731F07091EC00209129
:10104000ED005091F00021FD07C09F5F973071F7D0
:101050008093E90081E008953091EB003E7F30936A
:10106000EB003091ED003D7F3093ED003091EB00CF
:1010700031603093EB007093EC002093ED005093BF
:10108000F0002091EE0027FDE0CF80E00895B0E071
:10109000A0E0EDE4F8E00C94A839C8EDD0E0888138
:1010A0008F7E8883E7EDF0E080818160808384E03B
:1010B00082BF81E08093A90488818E7F888302EEBD
:1010C00010E0F80110821092DA0081EEC82ED12CC7
:1010D000F601108288818F77888388818068888371
:1010E00088818F7D888319BC1092CE041092CF0422
:1010F0001092CD041092CC0490EEE92EF12CF70161
:1011000080818B7F808388818160888342E060E07A
:1011100080E00E941508F60180818E7F8083F801AF
:10112000808181608083808188608083F7018081F5
:101130008E7F8083888180618883CDB7DEB7E8E0C9
:101140000C94C439FC018091D6049091D704861781
:101150009707A0F06115710529F49091E8009E773A
:101160009093E80090E06115710551F4911108C069
:101170008091E80082FF34C080E00895BC01F2CF86
:101180008091CE048823C1F18530C1F18091E800BF
:1011900083FD30C08091E80082FDEACF8091E800B5
:1011A00080FFE1CF8091F3002091F200382F61158C
:1011B000710519F02830310558F091E028303105DB
:1011C00009F090E02091E8002E772093E800CBCF43
:1011D00081918093F100615071092F5F3F4FE7CFFC
:1011E0008091CE04882341F0853041F08091E80061
:1011F00083FFBECF81E0089582E0089583E00895E3
:1012000008958091AB0408952FB7F8946091A004DD
:101210007091A1048091A2049091A3042FBF08951E
:1012200020919D0430919E042817390771F0909306
:101230009E0480939D04E0919B04F0919C04309760
:1012400021F00084F185E02D0995089520919904FD
:1012500030919A042817390771F090939A0480937B
:101260009904E0919B04F0919C04309721F0068052
:10127000F781E02D09950895E0919B04F0919C047D
:10128000309729F00190F081E02D0995089580E0D4
:101290000895CF93DF93EC0140918E0450918F0419
:1012A00060919004709191042FB7F8948091A004FC
:1012B0009091A104A091A204B091A3042FBF841B1C
:1012C000950BA60BB70B843F9140A105B10518F50E
:1012D00080918E0490918F04A0919004B09191041C
:1012E00080938A0490938B04A0938C04B0938D0414
:1012F00084EF91E0A0E0B0E08093860490938704AF
:10130000A0938804B0938904D0939604C093950465
:10131000DF91CF9108950E94040960938A0470932D
:101320008B0480938C0490938D0482E390E0A0E082
:10133000B0E0E2CFFC018481862351F492819923AD
:10134000B9F06923808583FF05C081E061110FC07A
:1013500080E00895892F8F7092959F70982B862F2B
:101360008F7062956F70682B81E09613F1CF0895AE
:1013700081E0FDCFDC016091820480918304962F8F
:10138000891301C00895292F30E0F901EE0FFF1FE6
:10139000E658FB4F408151814A175B07A1F487E073
:1013A0008A9FA0018B9F500D11244E5B5B4F81E003
:1013B000FA0184839613E6CF2F5F3F4F23703327C4
:1013C0002093820408952F5F3F4F922F9370D8CFC0
:1013D0001092DE031092DD03E2E4F4E085818111D6
:1013E00002C014821682379684E0EA37F807B1F714
:1013F0000895FA01811101C0FB010995089508952E
:101400008091F302982F9E7F29F4817082608093EF
:10141000F30208958A34E8F381708864F8CFAF92BC
:10142000BF92DF92EF92FF920F931F93CF93DF93C0
:10143000082F162FE901E42FF0E0E05AF64F611172
:1014400010C0E4915E2F4E2F4983E8835A83DF91C9
:10145000CF911F910F91FF90EF90DF90BF90AF90D1
:101460000895E62EF12C4491D42EE42FF0E026E0EE
:10147000829FC00111242FEF30E0B9010E948A3908
:10148000802F90E0880F991F55E5569FD001579FF8
:10149000B00D11248A1B9B0B982F990F890F5901AE
:1014A000AE18BF08AE9ED001AF9EB00DBE9EB00D6F
:1014B00011245B2F189F80011124012F112759013E
:1014C000A01AB10AAE9E8001AF9E100DBE9E100DF7
:1014D00011245901A81AB108AE9CC001AF9C900D0F
:1014E000BE9C900D1124892F9927281B390B2E9F04
:1014F000C0012F9F900D3E9F900D1124E92F623067
:101500007105A1F050F46115710509F49DCF6130AA
:10151000710581F0EB2F512F97CF6430710569F081
:1015200080F06630710509F48FCFF4CFE42F4B2F94
:10153000592F8ACFE42F412F87CFEB2F542F492FDC
:1015400083CF4B2F5D2DE12F7FCF9091C002803F45
:1015500059F48091C10287FF0DC01092C102911110
:101560000BC01092B80208C0813F81F48091C10283
:1015700018169CF3992381F08091C2029091C302C6
:10158000892B09F064C01092B7020895823F49F494
:1015900097FFF0CF1092C0028091C1028111ECCF71
:1015A000E0CF833F19F41916ACF3E4CF2091C202C7
:1015B000893F29F41216F4F61092C202DBCF8A3F5B
:1015C00019F427FFD7CFF8CF2091C3028B3F29F41E
:1015D00027FFD0CF1092C302CDCF8C3F19F4121643
:1015E000CCF3C8CF843F31F48091BF028E7F8093CB
:1015F000BF02C0CF853F21F48091BF028D7FF7CF1E
:10160000863F21F48091BF028B7FF1CF873F21F489
:101610008091BF02877FEBCF883F21F48091BF028A
:101620008F7EE5CF8D3F31F48091B9028E7F80931C
:10163000B902A0CF8E3F21F48091B9028D7FF7CF00
:101640008F3F09F097CF8091B9028B7FF0CF08953B
:101650008091B90280FD16C081FD16C082FD16C0C2
:101660008091B7028823A1F0883280F428E0829F1D
:10167000C001112468E270E00E94E339862F672BD5
:1016800039F0089582E0089584E0089588E008958F
:1016900081E008958091B90280FD14C081FD14C0DD
:1016A00082FD16C08091B802882381F08E3180F4CB
:1016B00020E5829FC00111246EE170E00E94E339B1
:1016C000862F089584E1089588E2089588E00895BA
:1016D00080E50895803F31F40E944A0B8195809304
:1016E000C1020895813F19F40E944A0BF8CF823F4E
:1016F00031F40E944A0B81958093C0020895833F84
:1017000019F40E944A0BF8CF893F29F40E94280B54
:101710008093C20208958A3F21F40E94280B81958C
:10172000F7CF8B3F31F40E94280B81958093C30241
:1017300008958C3F19F40E94280BF8CF843F31F4B0
:101740008091BF0281608093BF020895853F21F49C
:101750008091BF028260F7CF863F21F48091BF0263
:101760008460F1CF873F21F48091BF028860EBCF86
:10177000883F21F48091BF028061E5CF8D3F31F435
:101780008091B90281608093B90208958E3F21F45F
:101790008091B9028260F7CF8F3FB9F78091B9028B
:1017A0008460F1CF80E00895F894E82FE295EF701F
:1017B000F0E031A1282F2F7081E090E001C0880F68
:1017C0002A95EAF7982F9095932391A392A1892BBC
:1017D00082A3789408959091A40492FF06C0282FC4
:1017E00028712830F9F4877F846093FF06C0282F82
:1017F00028712831F1F4877E84612091A50420FFAF
:1018000006C0382F38713830D9F4877F816021FFC6
:1018100006C0282F28712831D1F4877E816194FD7C
:10182000877E0895282F24712430F9F68B7F8860F5
:10183000DCCF282F2471243101F78B7E8861DDCF26
:10184000382F3171313019F78E7F8860E0CF282F23
:101850002171213121F78E7E8861E1CFCF93DF9313
:10186000EC0182389105B1F108F040C08133910557
:1018700009F49DC048F58932910509F48DC08A9715
:1018800009F49CC0C11521E5D20708F0C3C0C115F9
:1018900030E5D30708F01EC1C83ED10508F0A3C04B
:1018A000C03ED10588F5C83AD10508F08EC0C53ACA
:1018B000D10508F007C1C130D10531F1209721F1E0
:1018C000C430D10508F545C08533910509F45FC0E2
:1018D000C997C1F68091A404837009F044C1809136
:1018E000A50483FF11C0C9E2D0E00EC0833E91057C
:1018F00099F170F4803E910501F1823E910511F657
:101900008091A40482FD21C0CE01DF91CF91089582
:10191000863E910561F1873E910571F1843E910506
:1019200009F0B0CF8091A50481FFEECF8091A4048F
:10193000C7EED0E084FD0DC0E7CF8091A40480FD08
:1019400033C09091A50490FFDFCFC3EED0E084FFB9
:10195000DBCFD0E0C0E0D8CF8091A40482FD00C1ED
:101960009091A50490FDFFC084FFCECFF2CF80916F
:10197000A40483FDDDCFC8CF8091A40483FDF6C00D
:101980009091A50491FFF0CFC4EED0E0BDCF80913F
:10199000A40485FFB9CFA7CF8091A40485FDE9C039
:1019A0008091A50483FFB0CFC9E3D0E0ADCF809193
:1019B000A40486FFA9CFCAE2D0E0A6CF8091A404F8
:1019C00086FFA2CFC1E3D0E09FCFCF3BD10508F681
:1019D000C85AD0E0CC0FDD1FCF5CDE4F0990D88114
:1019E000C02DD46491CFC11540E2D40758F4C1157D
:1019F00081E0D80708F088CFC03FD10508F4A9CF0F
:101A0000D06582CFC11520E4D20708F4A2CFDF70E1
:101A1000D06A7ACFC11535E5D30718F5C11544E56D
:101A2000D40708F085C0C11583E5D80708F06CC05D
:101A3000C11522E5D20708F462C0CE018370992750
:101A400021E030E002C0220F331F8A95E2F7C695ED
:101A5000C69580E2C89FE0011124C22BD32BDC681D
:101A600053CFC11539E5D307A8F4C11548E5D4070C
:101A700008F063C0C11586E5D80708F06ACF8C2F3F
:101A80000E94EB0BC82FD0E0DC2FCC27CC27DF71D6
:101A9000D0623ACFC1152AE5D20708F453C0CE016F
:101AA00090568115904208F054CF8D2F8F710E946F
:101AB000EB0B90E0982F882788279F719C012C2B97
:101AC000E901E6CFC55AD0E0C25DDE4FC881D0E063
:101AD000D0641ACF2C2F26952695237040E2249FA0
:101AE000900111248C2F8370C1E0D0E002C0CC0F94
:101AF000DD1F8A95E2F7C22BD32BDD6805CFDC2FE3
:101B0000CC27C16FD06A00CFCE018370992721E026
:101B100030E002C0220F331F8A95E2F7C695C695C2
:101B200040E2C49FE0011124C22BD32BDA68ECCE33
:101B3000DC2FCC27C46FD06AE7CEDC2FCC27C06F58
:101B4000D06AE2CE8C2F8F700E94EB0B34E0D695DA
:101B5000C7953A95E1F7CF709C2FEC01D069D4CEB0
:101B6000C2EED0E0D1CEC0EED0E0CECEC6EED0E018
:101B7000CBCEC5E3D0E0C8CE80916C02882331F093
:101B800010926C0210926B0210926A020895809576
:101B900090916902982390936902089510924802E7
:101BA00010924702109246020895909125019923C0
:101BB000D1F09091A40497FF16C0E82FE695E69522
:101BC000E695EE31E0F4F0E0E054FE4F282F277068
:101BD00081E090E001C0880F2A95EAF78095928114
:101BE000892382830895E2ECF1E09191891303C087
:101BF000DF0111971C9291E0E83CF907B1F70895D5
:101C0000909125019923C1F09091A40497FF14C0ED
:101C1000E82FE695E695E695EE31F8F4F0E0E0542D
:101C2000FE4F877021E030E001C0220F8A95EAF76D
:101C30008281822B82830895A2ECB1E0EFEF90E0E5
:101C40002D91821751F0EF3F19F4211101C0E92FB6
:101C50009F5F9630A9F7EF3F09F408950E2E000C10
:101C6000FF0BE054FE4FE6CF8091450290910402B5
:101C7000981301C008958F5F8770FACFA82FA770BF
:101C800023E0969587952A95E1F7FC01EE0FFF1F5B
:101C9000E80FF91FE60FF71F50E040E080E02191C8
:101CA00030E00A2E02C0369527950A94E2F721709B
:101CB0003327042E01C0220F0A94EAF7822B4F5FCC
:101CC0005F4F4330510559F70895903FC9F0943064
:101CD00080F48E30A8F4282F30E067EE71E0A9017F
:101CE000EEE09E9F400D511D1124CA010E943E0E40
:101CF00008959C5F923020F464EE71E090E0F6CF9E
:101D000080E00895262F277091E001C0990F2A9551
:101D1000EAF723E0769567952A95E1F7FB01EE0F48
:101D2000FF1FE60FF71FE40FF51F50E040E0682F9C
:101D300070E08191DF0111979B01042E02C036955E
:101D400027950A94E2F7217021952827292328272F
:101D50002C934F5F5F4F4330510559F70895282F5B
:101D6000862F903F79F0943070F42E3058F4622F23
:101D700070E02EE0929F600D711D112447EE51E03E
:101D80000E94820E08959C5F9230E0F7622F70E00F
:101D900044EE51E0F5CF982F92959F7011F0892F66
:101DA00094E0282F2695269511F09E5F822F869528
:101DB00009F09F5F892F08959C013A9521153F41B5
:101DC00050F5FC01EE27F170BC0166277270AC0182
:101DD000442754709C012227387094FF0EC080E184
:101DE000EF2B09F480E0672B09F08062452B09F0A6
:101DF0008064232B89F08068089581E0EF2B09F43B
:101E000080E0672B09F08260452B09F08460232B6A
:101E100019F08860089580E00895B0E0A0E0E3E163
:101E2000FFE00C94A8396C017B0164E670E088E760
:101E30000E94A438EC0197FD12C010E000E0F6010A
:101E4000E00FF11F849164E670E00E941039EC010C
:101E5000892B29F40F5F1F4F0E151F0581F70E9474
:101E60008639CE01CDB7DEB7E8E00C94C439809155
:101E7000DB039091DC03911103C091E08927089561
:101E8000882369F062E070E083EC9CE00E940D0F13
:101E9000892B19F08091DB0308951092DB03809168
:101EA000DB03EBCFCF93C091DB038091DC0388236E
:101EB000D1F00E940409605A75418F4F9F4F609383
:101EC000D7037093D8038093D9039093DA03C11199
:101ED00008C062E070E081EC9CE00E940D0F892B4D
:101EE00029F0C091DB038C2FCF91089581E080937E
:101EF000DB03F7CF8093A6047093A8046093A70434
:101F00008091CE048430F9F48093E9008FEF9091B2
:101F1000E800815095FD06C095ED9A95F1F7000017
:101F20008111F5CF8091E80085FF0DC050E040E0C1
:101F300063E070E086EA94E00E94CC078091E800BC
:101F40008E778093E8000895BC0184E00E947A0FA8
:101F50000895BC0183E00E947A0F08959C0184E0FB
:101F60008093E9009FEF8091E800915085FD06C0C5
:101F700085ED8A95F1F700009111F5CF8091E80089
:101F800085FF0CC050E040E066E070E0C9010E94AF
:101F9000CC078091E8008E778093E8000895CF9376
:101FA000DF93EC01809125018823B1F18091A40495
:101FB00087FF32C060E284E08093E9008FEF909168
:101FC000E800815095FD06C095ED9A95F1F7000067
:101FD0008111F5CF8091E80085FF1BC0809125011C
:101FE00070E050E040E0811104C050E040E068E063
:101FF00070E0CE010E94CC078091E8008E7780933C
:10200000E80080E2FE01ACEAB4E001900D928A950E
:10201000E1F7DF91CF91089568E081E0CDCFF894AA
:1020200081E08093E00080E28093D800E9ECF0E06A
:1020300010828FE19EE40197F1F700C000001DBA05
:10204000109268001CBC10BE1FBA10927A00109249
:102050006E0010926F001092710010927200108248
:10206000ECEBF0E0108214B817B81AB81DB810BA2B
:10207000108215B818B81BB81EB811BA0C94003FDE
:1020800008958091F30280FD0AC0EFECF2E0118226
:1020900010821282339652E0E33FF507C1F7249A8B
:1020A00035B13F7E25B120614FB7F8948FEC92E0B7
:1020B000FC015191CF0168E025B9000000C057FF35
:1020C00035B9550F000000C000C000C035B900C0D0
:1020D0006A9591F7F2E0833F9F0751F74FBF8FE575
:1020E00094E00197F1F700C000000895EF92FF928D
:1020F0000F931F93CF93DF938C01CFECD2E0F12CA1
:10210000E12CF80194816091F5028091F402F6E0EF
:10211000EF16F104ECF49923E9F09E014091F602E8
:102120000E940F0A2FEFE21AF20A23968CE0E816BB
:10213000F10439F70E944110F801848190E0019682
:10214000817099278483CDB7DEB7E6E00C94C63959
:10215000992319F39E0140E0E3CFB0E0A0E0E3EB68
:10216000F0E10C94A439EC014C81042F10E09801AB
:10217000D8010E942E3A9B01AC010E94443A4B01C7
:102180005C01E0E2F0E0E01BF10BA5E5B0E0AC01A2
:102190009B010E94443A6B017C019F01DF010E9478
:1021A000263A9B01AC010E944F3A9B01AC01280DDD
:1021B000391D4A1D5B1DC701B6010E94F739F22E79
:1021C000822F90E039E23F1598F143E0249F90017F
:1021D000112435952795122F10959FECC92E92E06A
:1021E000D92E00E085E5E82EEF188E2D01FD8F2D0C
:1021F0009601412F6091F5020E940F0A0F5F53E094
:10220000C50ED11C0C3089F70E9441109C8181E0E1
:10221000992319F0903219F48FEF80932101809166
:102220002101890F8C83CDB7DEB7ECE00C94C03967
:1022300025E530E0A901481B590BCA019A01220F7C
:10224000331F280F391F37FFC4CF2F5F3F4FC1CF38
:102250000F931F93CF93DF93CFECD2E0FE01118257
:1022600010821282339682E0E33FF807C1F710E054
:1022700000E08091CD02082E000C990B0817190779
:102280008CF180912001082E000C990B801791078A
:102290004CF19E014091F6026091F5028091F402AA
:1022A0000E940F0A0F5F1F4F23960C30110509F78C
:1022B0000E94411080911F019091CD02980F909340
:1022C000CD0220912001280F20932001121614F432
:1022D0009B301CF0819580931F01DF91CF911F915E
:1022E0000F910895198218821A82DCCFB0E0A0E025
:1022F000ECE7F1E10C94A739FC018281DD24DA944A
:1023000080FD02C0DD24D3940FEC12E0D0E0C0E0E9
:102310002CE0B22EF80111821082128294E0E92E94
:10232000F12CC12C8091CC028C0D8D30C4F16B2D21
:102330000E94D539892F082E000C990B8C179D0708
:1023400091F48091F6028E9DA0018F9D500D112475
:10235000559547955595479598016091F50280915F
:10236000F4020E940F0ACD0CF1E0EF1AF108D1F649
:1023700021960D5F1F4FCC30D10561F60E944110B0
:102380008091CC0291E0D91210C081110CC08BE079
:102390008093CC02CDB7DEB7E9E00C94C33987FF58
:1023A000CACF845FC8CF8150F3CF90E00196BE01C1
:1023B0000E94E339EDCFEF92FF921F93CF93DF930B
:1023C000EC018FECE82E82E0F82E10E08C81970172
:1023D0004091F6026091F502810F0E940F0A1B5E88
:1023E00083E0E80EF11C1C3F89F70E9441109A819E
:1023F0008C8190FF08C08F5F8C83DF91CF911F91FC
:10240000FF90EF9008958150F7CF9091F30290FFE5
:102410000CC0EFECF2E0818360834283339692E05C
:10242000E33FF907C1F70E9441100895A3E0B0E02F
:10243000ECE1F2E10C94AC398C018091CE02811177
:102440000AC09E012F5F3F4F4FEF6FEF0E940F0AB0
:102450008A818093CE02F8016481613069F08091B5
:10246000CE0240E0662361F040E0623011F440911A
:10247000CE0280E060E004C06091CE0240E080E0E7
:102480000E940512F801848190E0019663E070E0FB
:102490000E94E33984832396E4E00C94C839A3E0D6
:1024A000B0E0E5E5F2E10C94AE399091F30290FFD3
:1024B0000AC09E012F5F3F4F0E940F0A4B81698126
:1024C0008A810E9405122396E2E00C94CA39CF93C8
:1024D000DF93EC01E3EFF2E0438162818C810E94A3
:1024E0004F128C818F5F8C83DF91CF910895CF93B2
:1024F000DF93EC01EC81F0E0EB59F54F4491E3EF11
:10250000F2E0628181810E944F128C818F5F8C8307
:10251000DF91CF910895CF93DF93C3E2D2E060E0E3
:10252000CE010E94B13A2196C11584E0D807B9F7CF
:10253000DF91CF9108950F931F93CF93DF93142FC3
:10254000022F8330F0F461111CC094E0899FE001F8
:102550001124C958DE4F82E090E0442311F090E04E
:1025600080E0632F8C0F9D1F0E94B13A83E090E0C2
:10257000112311F081E090E0602F8C0F9D1F0E94CD
:10258000B13ADF91CF911F910F9108951F93CF938F
:10259000DF93122F8330E0F46430D0F44E30C0F477
:1025A000C42FD0E0CC0FDD1F9CE1699FC00DD11D71
:1025B000112490E7899FC00DD11D1124632FCE01F6
:1025C00087960E94B13A612FCE0188960E94B13A57
:1025D000DF91CF911F910895CF93C82F6FEF811195
:1025E00063E883E290E00E94B13A6FEFC11164E6C4
:1025F00084E290E00E94B13A6FEFC1116BEA85E28C
:1026000090E00E94B13ACF910895A4E1B0E0EBE0F0
:10261000F3E10C949F39609022017090230181E0D6
:1026200090E0909323018093220185E6C82E8BE0F1
:10263000D82E97E6A92E9BE0B92E21E7E22E2BE0BB
:10264000F22E512C8701412C15C0F40125913491B3
:10265000432D642D852D0E94C61282E0880E911CA8
:1026600033949EE03912F1CF045E1F4F4394E4E0AF
:102670004E1619F04801312CE8CFF601259134911E
:1026800041E060E0852D0E949B12F5012591349177
:1026900040E060E0852D0E949B12F4E0CF0ED11C3B
:1026A000539484E0A80EB11C90E7E90EF11CE3E01E
:1026B0005E12C8CFCE0101967C018AE0F70111922B
:1026C0008A95E9F703E811E04AE050E0B801C70154
:1026D0000E94D53A065F1F4F033DF1E01F07A1F7A7
:1026E0007E018BE0E80EF11C8AE0F70111928A95D9
:1026F000E9F78FEF9FEF988B8F8787E08C8B4AE00D
:1027000050E0B801C7010E94D53A065F1F4F03325F
:10271000F2E01F07A1F770922301609222016496F4
:10272000E1E10C94BB3980E00E94EC1260E086E2AB
:1027300090E00E94B13A0E9405130E948B1281E042
:102740000E94EC120895FF920F931F93CF93DF9393
:10275000F42E833040F5611126C024E0829F800171
:10276000112409581E4F82E090E0442311F090E0BC
:1027700080E0800F911F0E949D3AC82FD0E0DC2F8F
:10278000CC2783E090E0FF2011F081E090E0800F03
:10279000911F0E949D3A9E01282BC901CDB7DEB73B
:1027A000E5E00C94C73990E080E0F8CF0F931F93D9
:1027B000CF93DF93833030F5643020F54E3010F541
:1027C000C42FD0E0CC0FDD1F2CE1629FC00DD11DC6
:1027D000112430E7839FC00DD11D1124CE018796AF
:1027E0000E949D3A082F10E0102F0027CE018896F6
:1027F0000E949D3A9801282BC901DF91CF911F912A
:102800000F91089590E080E0F8CF462F672F209138
:10281000D5033091D603232BF9F4703F39F4403FB0
:10282000D9F48091D3039091D40308958330A0F418
:10283000743028F44E3080F40E94D61308957D3F02
:1028400039F4411109C041E060E00E94A3130895EA
:102850007C3F11F44423C1F390E080E00895CF92CF
:10286000DF92FF920F931F93CF93DF936C01009140
:10287000D80480916D02082BC7E0D0E010E0FC2E58
:10288000C8010C2E02C0959587950A94E2F780FD49
:102890000CC02197A0F7F12C8F2DDF91CF911F91C4
:1028A0000F91FF90DF90CF900895B6018C2F0E947A
:1028B00005140E942E0C019761F3EECFCF93DF93A6
:1028C000EC010E942F14BE010E9405140E942E0CE0
:1028D000DF91CF910895FC0183819481892B29F0A8
:1028E0008081918189238F3FF1F480E008950E94D7
:1028F0002E0C92959F70963089F058F4925F9F70DD
:10290000923098F7803F19F030F4883E70F781E0FC
:1029100008959A5FF4CF843F41F7F9CF883EB8F32A
:10292000813F19F7F4CF86819781009701F7808165
:1029300091810E945E14DDCFA5E0B0E0E2EAF4E10F
:102940000C94AD399C01FC01868197810097E1F4DC
:1029500085E0DE01119601900D928A95E1F7F9016B
:10296000228189819A81222399F0662389F00E942D
:102970002F14182F682F89819A810E94AF0E6981C8
:102980007A81812F0E9405142596E3E00C94C939C1
:102990000E94650E182FF3CF83E290E00E949D3ACB
:1029A000833889F484E290E00E949D3A843659F499
:1029B00085E290E00E949D3A91E08B3A09F090E028
:1029C000892F8170089580E0FCCFCF9384E090E060
:1029D0000E949D3AC82F82E290E00E949D3A982F73
:1029E0008C2FCF910895AAE0B0E0E9EFF4E10C94C8
:1029F000A4390BE513E089E4C82E83E0D82E93EDCB
:102A0000E92EFF24F39427E0922E38E4A32E33E03E
:102A1000B32E88248394D6010D931D936D014AE053
:102A200050E0B701CE0101960E948D3AF801389628
:102A3000DF01892D1D928A95E9F789819A81D80154
:102A400011969C938E938F8112968C9312978D8101
:102A500013968C931397888514968C931497898575
:102A600015968C9315978B819C8117969C938E93CA
:102A7000169718961C9218978A8587FF3CC01E9659
:102A80001C921E921D9780FF03C0D80118968C924D
:102A900081FF04C0F80190859260908782FF07C093
:102AA000D80118969C911897946018969C9383FF70
:102AB00004C0F80190859860908784FF07C0D80112
:102AC00018969C911897906118969C9385FF04C066
:102AD000F801808580628087015F1F4FFAE0EF0E6A
:102AE000F11C83E2E81682E0F80609F094CF2A96FA
:102AF000ECE00C94C039F801B686A586C4CFAAE0F4
:102B0000B0E0E5E8F5E10C94A839E8EFF2E080E503
:102B1000DF011D928A95E9F7E2E4F4E088E3DF0142
:102B20001D928A95E9F788EFC82E82E0D82E7F01A2
:102B300003E811E0F701D182C0824AE050E0B80119
:102B4000CE0101960E948D3A88E0FE013196D601B1
:102B500001900D928A95E1F789859A85D7011396A0
:102B60009C938E931297BAE0CB0ED11CE7E0EE0E49
:102B7000F11C065F1F4F033DF1E01F07D9F62A96AF
:102B8000E8E00C94C439CF92DF92EF92FF926B0190
:102B90007C010E94000AB701A60188E090E00E9433
:102BA000C33AFF90EF90DF90CF900895A3E0B0E09C
:102BB000ECEDF5E10C94A139F82E762EE42E622E80
:102BC0009091F30290FF29C0E92FE695AE2FB0E077
:102BD000A757BE4F8C918093CA029E7F923009F511
:102BE0009E012F5F3F4F8F2D0E940F0A4B816981FD
:102BF0008A810E940512F092F4027092F502E0922E
:102C0000F602662051F06091F3027091F402809117
:102C1000F5029091F6020E94C3152396EFE00C9402
:102C2000BD39823019F4E090F602E5CF863019F410
:102C3000F090F402E0CF8930D9F38931E1F6E9511F
:102C40008E2F8170582EE695F0E0E05AF54FE49112
:102C50000E2F10E08FECC82E82E0D82EB12CA12CC4
:102C60009CE0892E912CC501B4010E948A398F2DD8
:102C7000511013C0860F96014E2D672D0E940F0A2A
:102C8000A00EB11E83E0C80ED11C83EFC81682E0EF
:102C9000D80649F70E944110AECF861BECCFE3EF78
:102CA000F2E0438121E1421B08F440E021E062812F
:102CB00081810E94D6150895E3EFF2E0438121E17E
:102CC000420F08F44FEF21E0628181810E94D61506
:102CD0000895E3EFF2E0628121E1621B08F460E015
:102CE00021E0438181810E94D6150895E3EFF2E04F
:102CF000628121E1620F08F46FEF21E0438181815D
:102D00000E94D6150895E3EFF2E0818121E043812E
:102D1000628188500E94D6150895E3EFF2E0818128
:102D200021E043816281885F0E94D61508958091D9
:102D3000F702882319F081508093F7026091F30223
:102D40007091F4028091F5029091F6020E94C315F1
:102D500008958091F702833018F48F5F8093F70213
:102D60006091F3027091F4028091F5029091F60265
:102D70000E94C3150895E3EFF2E083E0808311829F
:102D80008FEF82838383148260817181828193813A
:102D90000E94C315089568EE7EEF90E080E00E94E7
:102DA000CF3A60E082E090E00E94B13A60E083E0D8
:102DB00090E00E94B13A10926D0260E084E090E0F1
:102DC0000E94B13A64E082E290E00E94B13A60E091
:102DD00085E090E00E94B13A60E086E090E00E94D9
:102DE000B13A6FEF87E090E00E94B13A40E050E0E6
:102DF000BA0188E090E00E94C33A60E08DE090E084
:102E00000E94B13A40E050E0BA0188E190E00E94AF
:102E1000C33A60E087E190E00E94B13A40E050E0C0
:102E2000BA018CE190E00E94C33A70E060E080E279
:102E300090E00E94CF3A40E050E0BA0188E190E093
:102E40000E94C33A80E00E94EC120E94931340E07B
:102E500050E0BA018FE090E00E94C33A40E050E0B9
:102E6000BA0183E190E00E94C33A089590E080E0C7
:102E70000E94AB3A883E9E4F19F40E94CC140895EC
:102E800080E008951F920F920FB60F9211242F9396
:102E90003F934F935F936F937F938F939F93AF93E2
:102EA000BF93EF93FF938091E10082FF09C080916F
:102EB000E20082FF05C08091E1008B7F8093E100FA
:102EC0008091DA0080FF24C08091D80080FF20C06C
:102ED0008091DA008E7F8093DA008091D90080FFA4
:102EE0009DC080E189BD82E189BD09B400FEFDCFAE
:102EF00081E08093CE048091A904811109C00E94D1
:102F00007C070E9447088091E20084608093E20081
:102F10008091E10080FF17C08091E20080FF13C024
:102F20008091E2008E7F8093E2008091E2008061D8
:102F30008093E2008091D80080628093D80019BC11
:102F400085E08093CE048091E10084FF2BC08091C6
:102F5000E20084FF27C080E189BD82E189BD89B597
:102F6000982F917080FFFBCF8091D8008F7D809348
:102F7000D8008091E1008F7E8093E1008091E20093
:102F80008F7E8093E2008091E20081608093E20076
:102F90008091CF04882309F447C084E08093CE0455
:102FA0008091CE048091E10083FF27C08091E200F0
:102FB00083FF23C08091E100877F8093E10082E05E
:102FC0008093CE041092CF048091E1008E7F809395
:102FD000E1008091E2008E7F8093E2008091E20028
:102FE00080618093E20042E060E080E00E9415088A
:102FF0008091F00088608093F000FF91EF91BF9185
:10300000AF919F918F917F916F915F914F913F9180
:103010002F910F900FBE0F901F90189519BC109212
:10302000CE041092A90474CF8091E30087FD93E051
:103030009093CE04B5CF78941F921FB61F9211249F
:103040008F939F93AF93BF938091A0049091A1041D
:10305000A091A204B091A3040196A11DB11D80937B
:10306000A0049093A104A093A204B093A304BF91E1
:10307000AF919F918F911F901FBE1F9018959C013B
:103080004FB7F8948091A0049091A104A091A2045C
:10309000B091A3044FBF821B930B08952FB7F894F0
:1030A0008091A0049091A104A091A204B091A304E6
:1030B0002FBF08959091F30290FF2CC09170811161
:1030C0002AC092609093F302662351F06091F3025C
:1030D0007091F4028091F5029091F6020E94C3155E
:1030E0006091F302669570E04BE050E084E191E07E
:1030F0000E946C3A892BB1F01092CB0281E0809350
:10310000C70220E04091F6026091F5028091F4023E
:103110000E94D6150895853210F09864D3CF880F99
:10312000982BD0CF81E08093CB020E944E189093D1
:10313000C5028093C402E2CF8091F302869581504C
:1031400009F484E261E00E945A1808958091F30224
:1031500086958F5F853208F081E061E00E945A1801
:1031600008959091F30290FF08C09695981728F063
:10317000961718F40E94A618089561E00E945A1844
:1031800008950E944E189C019091C0028091C10246
:10319000982B21F03093BD022093BC029091C20283
:1031A0008091C302982B21F03093BB022093BA0286
:1031B000E0919B04F0919C04309749F082E0809369
:1031C000BE020480F581E02D8EEB92E00995089512
:1031D000A8E0B0E0EEEEF8E10C94A4398E010F5FA8
:1031E0001F4F88E0F80111928A95E9F79FE5E92ED3
:1031F00091E0F92E6801AA24A394B12CF7018191E2
:103200007F018F3F09F446C0F894E82FE295EF70F4
:10321000F0E021A18F70A50102C0440F551F8A95CF
:10322000E2F7CA01922F982B91A392A1809589234E
:1032300082A3789400C0E3E6F1E021E030E0912C35
:10324000812C41914F3F09F467C0A42FA295AF7024
:10325000B0E090968C9190E04F7002C09595879564
:103260004A95E2F780FD58C0C901882A992A220FA1
:10327000331F51E0E137F50721F7F70131978081DE
:103280008F3F11F00E94D40B80EA8A95F1F7F60186
:1032900091828082F2E0CF0ED11C43E6E41641E039
:1032A000F40609F0ABCF48E050E0B80181E792E0C6
:1032B0000E94793A892B99F188E0F801A1E7B2E000
:1032C00001900D928A95E1F781E0809370020E944F
:1032D0004E1890936F0280936E0280916E029091CF
:1032E0006F020E943F180597F0F048E050E061E758
:1032F00072E08FEA92E00E94793A892BC9F088E067
:10330000E1E7F2E0AFEAB2E001900D928A95E1F7D1
:1033100081E01092700208C090E080E0A6CF80911A
:1033200070028111DACF80E02896ECE00C94C0396D
:1033300080E0EFCFCF93809169029091DF03892BDA
:103340008093C00180916C02882339F10E944E184D
:1033500020916A0230916B02821B930B8838934153
:1033600010F00E94BC0D8091C00190916C02892BDD
:103370008093C00180912501882309F447C0809182
:10338000A40487FF43C08EE1E2ECF1E090E08150BD
:1033900008F03EC091110E94BC0DC0919204C095EE
:1033A0008091C001C82380919304C82BC093C001B1
:1033B00040E250E069E472E080EC91E00E94793AEA
:1033C000892B11F180E2E0ECF1E0A9E4B2E0019098
:1033D0000D928A95E1F7E0919B04F0919C0430975F
:1033E00099F080912501882349F08091A40487FFFA
:1033F00005C0C093C10186E08093C0010280F381C3
:10340000E02D80EC91E00995CF91089586E0BCCF46
:103410002191222309F4BBCF9F5FB9CF90E080E0D8
:103420000E94260990E080E00E9410091092DF03BC
:103430000E949A1986E0EEEBF2E0DF011D928A9578
:10344000E9F71092B8021092B7021092B9020E94E6
:10345000C11808958093D8040E940E1A089580918F
:10346000D804982F9670963021F488600E942A1A0A
:103470000895877FFBCF21E030E001C0220F8A95BD
:10348000EAF720958091D80482230E942A1A089591
:10349000909148028095892380934802282F2770B5
:1034A00091F4282F082E000C330B9217130659F0B5
:1034B0009091A50492FF07C08595859585950E94FA
:1034C0003B1A0E94CE0D0895CF93C091A504C2FB74
:1034D000992790F9981791F080FBC2F9C093A50441
:1034E0006091A40484E090E00E94B13A6C2F82E2E3
:1034F00090E00E94B13A82E00E94481ACF9108956C
:1035000021E030E001C0220F8A95EAF78091D804CB
:10351000822B0E942A1A089580936D020E940E1A2F
:1035200008951092690280912501E2ECF1E0882370
:1035300061F08091A40487FF08C08EE1DF011D9235
:103540008A95E9F70E940E1A089586E0F7CFAAE25D
:10355000B0E0EDEAFAE10C94AD3980ED94E0209111
:10356000F100DC012D93CD01B4E0883D9B07B9F754
:103570008091D104833009F472C0B8F4813009F429
:1035800049C0823009F4B3C08091E80083FF96C23D
:103590008091D0049091D1049A3008F08FC2E92F25
:1035A000F0E0E151F54C0C94193A8A3009F48EC0E0
:1035B0008B3009F471C0893039F78091D0048132A1
:1035C00019F78091D4049091D504009711F00297D7
:1035D000D9F68091E800877F8093E8008091E80029
:1035E00082FF38C09091F3008091F200029731F48D
:1035F0008091F100813011F0863021F48091F1004A
:103600008093AB048091E8008B778093E8000E9460
:10361000F607BACF8091D004813A09F0B5CF8091F6
:10362000E800877F8093E8008091D4049091D504CE
:10363000892B61F460E28CEA94E070E00E94A208B9
:103640008091E8008B778093E8009ECF60E090E067
:1036500080E0F3CF8091CE048111C0CF95CF8091CF
:10366000D004813A09F090CF8091D4049091D50490
:10367000892B09F089CF8091E800877F8093E8004B
:103680008091E80080FFFCCF809125018093F100BC
:103690008091E8008E77B9CF8091D004813209F013
:1036A00073CF8091D4049091D504892B09F06CCF0D
:1036B0008091E800877F8093E8000E94F607809160
:1036C000D204809325010E94911A5ECF8091D0048C
:1036D000813209F059CF8091E800877F8093E8001C
:1036E0000E94F6078091D3048093AA044DCF809165
:1036F000D004813A09F048CF8091E800877F809319
:10370000E8008091E80080FFFCCF8091AA04BECF42
:10371000803899F0823809F0D1C18091D4048F703B
:10372000873008F0CBC18093E9008091EB0085FBE6
:10373000882780F91092E90006C08091CC0490910E
:10374000CD04911182609091E800977F9093E800FA
:103750008093F1001092F1008091E8008E77AAC169
:10376000882309F498C1823009F0A8C18091D2045D
:1037700081119BC18091D4048F702FEF280F2630C8
:1037800008F09CC18093E9002091EB0020FF8DC1DF
:10379000933031F48091EB0080628093EB0085C11F
:1037A0009091EB0090619093EB0021E030E001C03C
:1037B000220F8A95EAF72093EA001092EA0080919E
:1037C000EB008860EACF811179C11091D2041F7794
:1037D0008091E3008078812B8093E3008091E80062
:1037E000877F8093E8000E94F6078091E80080FFC1
:1037F000FCCF8091E30080688093E30082E01111A8
:1038000083E08093CE045AC18058823008F056C1BC
:103810002091D2043091D3042C3DE3E03E07A1F582
:1038200083E08A838AE289834FB7F894DE01139696
:1038300020E03EE051E2E32FF0E050935700E491A6
:1038400020FF03C0E295EF703F5FEF708E2F90E096
:10385000EA30C0F0C7968D939D932F5F243159F7BE
:103860004FBF8091E800877F8093E8006AE270E0B4
:10387000CE0101960E94A2088091E8008B77809388
:10388000E8001CC1C096E7CF8091D4049091D50484
:10389000432F55274330510509F44AC078F541308C
:1038A000510509F485C08BE590E0E5E7FDE0423085
:1038B000510509F003C12091E800277F2093E8001B
:1038C0002091D6043091D7048217930708F49C0105
:1038D00040E02115310509F070C041116EC08091A2
:1038E000E80082FDC9CF8091CE04882329F285307B
:1038F00019F28091E80083FFF2CFBECF413251052B
:1039000009F447C04232510509F0D8C0833091050F
:1039100008F0D4C0FC01EE0FFF1FEF54FE4F0190E2
:10392000F081E02D82559E4FDC018C9190E01DC00E
:10393000332721303105E9F02115310579F02230A6
:103940003105F9F02330310509F0B8C0E2EEFDE0B1
:10395000E4918E2F90E0E2EEFDE007C0E2E3FEE0AE
:10396000E4918E2F90E0E2E3FEE0009709F4A6C018
:10397000A2CFE4E1FEE0E4918E2F90E0E4E1FEE0EE
:10398000F4CFE0E0FEE0E4918E2F90E0E0E0FEE096
:10399000ECCF8330910508F091C0880F991FFC018E
:1039A000E954FE4F0190F081E02D89E090E083CF53
:1039B00082E190E0E0EDFDE07ECF8091CE048823AF
:1039C00009F45ACF853009F457CF8091E80083FD80
:1039D00053CF8091E80082FD82CF8091E80080FF84
:1039E00078CF9091F3008091F2002115310519F004
:1039F0008830910550F041E0089709F040E080914F
:103A0000E8008E778093E80064CF44914093F10002
:103A10003196215031090196E8CF803809F04EC027
:103A20008091E800877F8093E8008091CF048093A5
:103A3000F10092CE811142C01091D2041230F0F503
:103A40008091E800877F8093E8001093CF040E9464
:103A5000F607112311F084E005C08091E30087FD93
:103A6000FACF81E08093CE0442E061EC81E00E94D5
:103A7000150842E261EC84E00E94150842E261EC24
:103A800082E00E94150842E260EC83E00E94150883
:103A90008091CE0413C08091D204813079F481E00A
:103AA000933009F080E08093CD041092E90080917A
:103AB000E800877F8093E8000E94F6078091E80085
:103AC00083FF0AC08091E800877F8093E80080919F
:103AD000EB0080628093EB00AA96E3E00C94C93976
:103AE0001F920F920FB60F9211242F933F934F9373
:103AF0005F936F937F938F939F93AF93BF93CF9376
:103B0000DF93EF93FF93D091E900DF708091EC0099
:103B1000C82FC17080FDC0E81092E9008091F000CC
:103B2000877F8093F00078940E94A71A1092E90092
:103B30008091F00088608093F000CD2BCF70C0930F
:103B4000E900FF91EF91DF91CF91BF91AF919F91EC
:103B50008F917F916F915F914F913F912F910F9036
:103B60000FBE0F901F9018950E94911A2FEF84E3BB
:103B70009CE0215080409040E1F700C0000088E1C7
:103B80009AE00FB6F894A895809360000FBE9093CA
:103B90006000FFCF882341F080959091DF03892357
:103BA0008093DF030E949A190895882339F0909139
:103BB000DF03982B9093DF030E949A1908958823BE
:103BC00021F00E94C70D0E949A190895882339F0A8
:103BD00090916902982B909369020E949A19089516
:103BE000882309F455C0823879F40E943C0981FF8A
:103BF0004FC089E30E94000E0E949A1989E30E9437
:103C0000D50D0E949A190895833859F40E943C09F1
:103C100080FF3EC083E50E94000E0E949A1983E552
:103C2000EECF843859F40E943C0982FF31C087E40A
:103C30000E94000E0E949A1987E4E1CF9CEF980F32
:103C4000913AE8F290E2980F983050F4877091E042
:103C500001C0990F8A95EAF7892F0E94C70DD1CF2D
:103C60009BE5980F933028F490E080E00E942609AD
:103C7000089598E5980F973128F490E080E00E942D
:103C800010090895803F20F00E94A50A0E94C118E3
:103C90000895FF920F931F93CF93DF93F82E009117
:103CA0009704109198040115110509F449C0109268
:103CB0009604109295041092920410929304D801E5
:103CC0001696CD91DC919E013A9521153F4108F45D
:103CD000D07ED1E0C11101C0D0E0D8011996ED919C
:103CE000FC911A97309731F01B966D917C9180E092
:103CF0000995D823DD2339F08CEF8C0F813A30F50C
:103D00008C2F0E94D50DFF2099F0E0919704F0913F
:103D10009804808584FD0CC080919404882341F030
:103D2000808191819C0121503109203B3D45A0F0CB
:103D30000E949A1910929804109297041092940479
:103D4000C801CDB7DEB7E5E00C94C7390E949A19D7
:103D50008C2F0E94F01DD7CF0E944909E9CFCF9345
:103D6000C82F8823C9F08238C9F40E943C0981FD1C
:103D700013C089E30E94000E0E949A192FEF87EE6C
:103D800093E0215080409040E1F700C0000089E3BB
:103D90000E94D50D0E949A19CF9108958338A1F4FD
:103DA0000E943C0980FDF8CF83E50E94000E0E942E
:103DB0009A192FEF81EE94E0215080409040E1F776
:103DC00000C0000083E5E4CF8438A1F40E943C09E0
:103DD00082FDE2CF87E40E94000E0E949A192FEF25
:103DE00081EE94E0215080409040E1F700C0000057
:103DF00087E4CECF8CEF8C0F813A88F58091250136
:103E0000882301F18091A40487FF1CC0EC2FE69564
:103E1000E695E695F0E0E054FE4F828190E04C2F6D
:103E2000477021E030E002C0220F331F4A95E2F7CD
:103E300082239323892B79F08C2F0E94D50D0E9429
:103E40009A1909C0E2ECF1E08191C817A9F321E0C9
:103E5000E83CF207C9F78C2F0E94000E9BCF80E24E
:103E60008C0F883068F4C77021E030E001C0220F69
:103E7000CA95EAF780916902822B809369028ACF02
:103E8000EBE5EC0FE33040F4F0E0E25DFE4F8081C3
:103E900090E00E94260980CFE8E5EC0FE73150F46E
:103EA000F0E0EE0FFF1FEF5CFE4F808191810E94DA
:103EB000100972CFC03F08F46FCF8C2F0E946A0B9D
:103EC0000E94C11869CF1F93CF93DF93182FCAE0C8
:103ED000D0E0893311F4C0E5D0E0812F0E94AF1EFD
:103EE0008FE99FE00197F1F700C000002197C1F72B
:103EF000812F0E94F01DDF91CF911F9108950F93A4
:103F00001F93CF93DF93C62FD42F022FFC01828102
:103F10008823A9F06093DB040E944E189093DA0482
:103F20008093D904C77081E001C0880FCA95EAF771
:103F30000E94E61DDF91CF911F910F91089580910E
:103F4000DB04681332C08091D9049091DA040E9496
:103F50003F18883C910548F510E21D0FCD17B9F0C8
:103F600080E28C0F883040F4C77081E001C0880F78
:103F7000CA95EAF70E94DF1D183048F481E09D2FB2
:103F8000977001C0880F9A95EAF70E94E61D802F6E
:103F90000E94631F183070F6D77081E001C0880F4F
:103FA000DA95EAF70E94DF1DC5CFC77081E001C036
:103FB000880FCA95EAF7F6CFB0E0A0E0E2EEFFE1A5
:103FC0000C94A539EC01A62E8AE0982E2881222394
:103FD00009F4A4C0213009F04BC08981813091F4EB
:103FE0008E010E5F1F4F8A810E94631FE801219698
:103FF0008A2D815058F3EFE9FFE03197F1F700C0C7
:104000000000F7CF823039F48E010E5F1F4F8A8196
:104010000E94AF1EEBCF833039F48E010E5F1F4F2D
:104020008A810E94F01DE2CF843011F02196DFCF0B
:104030002A81229690E080E0AE014F5F5F4F2053CF
:10404000330B2A30310548F0019788F2EFE9FFE0A1
:104050003197F1F700C00000F7CF989EB001999E0C
:10406000700D1124C901860F971F2981EA01E4CF41
:10407000E22FF0E0EB50F34FB490822F86958695B7
:10408000869590E0FC01EB51F34FE4902770F12C02
:10409000022E02C0F594E7940A94E2F731E0E3229D
:1040A000FF24FC01EB52F34FC490D12C022E02C02E
:1040B000D594C7940A94E2F7E1E0CE22DD24FC0116
:1040C000EB53F34F049110E002C0159507952A9524
:1040D000E2F701701127E114F10419F081EE0E945A
:1040E000AF1EC114D10419F086EE0E94AF1E8B2DB5
:1040F0000E94631FC114D10419F086EE0E94F01DC6
:10410000E114F10419F081EE0E94F01D0115110572
:1041100009F46DCF8CE20E94631F69CFCDB7DEB783
:10412000EBE00C94C139CF93DF93EC010E94DC0EDD
:104130009E01205E31092830310510F0209741F4AE
:104140000E94E61D8C2F0E94AF1EDF91CF91089533
:104150000E94D51DF7CF9091A50492FF10C098E062
:10416000899F90011124622B609348020E94801A5B
:104170000E944E18909347028093460208950E9431
:10418000801A0895A9E1B0E0E8ECF0E20C949E39C1
:10419000498B5A8B6B8B7C8B8D8B61111092DF035B
:1041A0001D861E861F86188A85E0FE017196DE0137
:1041B000199601900D928A95E1F78091A50482FFEE
:1041C0001CC00E944E182091460230914702821B6B
:1041D000930B8838934120F08091480282FFEBC115
:1041E0000E944E1820916A0230916B02821B930B41
:1041F0008838934110F00E94BC0D8C859D85892BD9
:1042000031F089859A8589238F3F09F0C0C12985BE
:104210003A854B855C856D857E858F8598890E9462
:104220001F2DC3C048EFC4164CE5D40629F48823DB
:1042300079F00E94F42DEBCF69EFC6166CE5D60637
:1042400039F4882329F0809124018111F2CFAFC184
:1042500002E414E0E12CB12CA12C88248394912C4D
:104260002EEF522E44244394F8014081518166245C
:104270006A94762C20E0822F90E0FC01EE0FFF1F65
:10428000E40FF51F608171816115710531F0C6166B
:10429000D70609F43C012F5FEECFF12CFFEF6F162C
:1042A0007F0609F444C0F8014481F09024018F2D69
:1042B000411180E0F82FF170FF2EF80125808681F2
:1042C0009B85992309F4F2C0FF2009F4EFC0211067
:1042D00014C0A401062C01C0440F0A94EAF7842BF1
:1042E00086838091DD039091DE03C29730F462E310
:1042F00070E07093DE036093DD03C40102C0880F99
:10430000991F2A95E2F70197F801268128171906C7
:1043100071F48091840490918504009709F449C058
:104320000E943F18C39708F444C0F8014482EF2864
:10433000FFEFAF1ABF0A095F1F4F28E0A216B104B2
:1043400009F092CF8B85882309F40CC1EE2009F483
:1043500009C10E944E189093850480938404809133
:10436000E103883010F591E0980F9093E10398E015
:10437000FE013996DE01119601900D929A95E1F7B2
:104380003CE0839FC00111248E519C4F28E0FE0128
:104390003196DC0101900D922A95E1F72FEF3FEF66
:1043A000FC0131872087D386C2866996E2E10C94AE
:1043B000BA398091820450918304982FF0E0E0E0B4
:1043C000851314C0909382040E171F0709F4AFCF12
:1043D00090E0FC01EE0FFF1FE658FB4FB182A08278
:1043E00001968370992780938304A1CF282E312CC6
:1043F000F101EE0FFF1FE658FB4F20813181F7E0FE
:10440000F29FD001F39FB00D1124AE5BBB4F2D91F5
:104410003C911197398F288F40E020E030E0E32F66
:10442000F0E0EE0FFF1F688D798DE60FF71F6080BB
:10443000718061147104E1F0F8010190F081E02DC8
:10444000FF8BEE8B20E005C06616770609F44F2D32
:104450002F5FE22FF0E0EE0FFF1F6E897F89E60FDE
:10446000F71F608171816115710571F73F5FD7CFCB
:104470004423C9F0F801231708F0FD014482E01736
:10448000F10721F490938204F42E51CF981305C0C4
:10449000EA17FB0711F49F5F937091012F5F3F4F65
:1044A000822F83708DCFF0E0E0E0F7CF90E0211015
:1044B00020C0B40102C0660F771F2A95E2F79B0166
:1044C000215031098217930731F4442309F448C07D
:1044D000C5010E94BA09C401062C01C0880F0A94C4
:1044E000EAF7982F9095F801868189238683F22C2C
:1044F0001ECF9C01062C02C0359527950A94E2F741
:10450000A90141705527BC01615071098623972389
:10451000892B11F5452B01F1F80182819381892BBB
:10452000C1F01B821C821D821E8259825A820E9407
:104530004E188160582F9D838C83F801828193816E
:104540008F83988729813A814B816D817E810E947A
:104550001F2DF8011582BFCFF22FF1702F2EBBCF88
:104560002F2CB9CF9091820480918304981731F059
:104570000E94032EEE2009F44ACE17CF0E948F2D01
:1045800010928504109284040E94E809F3CF61E040
:10459000CE0109960E949C146C018B85F7EFCF1613
:1045A000FCE5DF0609F03ECE882309F451CE81E018
:1045B000809324012CCE82E00E94481A11CEA5E0FF
:1045C000B0E0E5EEF2E20C94AC398C019093D403A8
:1045D0008093D303011580E21807C0F4802F0E9456
:1045E000F01DC8010E94DC0E9801205E31092830C0
:1045F000310518F00115110531F40E94DF1D2596D3
:10460000E4E00C94C8390E94CA1DF9CF80EF898379
:104610008A831B820E944E188160782F9D838C8331
:1046200049815A816B818D810E94C220E8CFA5E02B
:10463000B0E0EDE1F3E20C94AE399093D4038093B3
:10464000D303811520E2920730F40E94932025962F
:10465000E2E00C94CA3980EF89838A8381E08B83FE
:104660000E944E188160782F9D838C8349815A81E6
:104670006B818D810E94C220EACFA7E0B0E0E3E425
:10468000F3E20C949E397C01DC0113968D919C9190
:104690001497892B39F08C9111969C9189238F3F27
:1046A00009F010C62796E2E10C94BA39C80182518C
:1046B0009F45409708F0E4C58FEF93E00E949D3A34
:1046C0008111B0C06EEED62ED00E03E212E0D110F2
:1046D00037C019821A821B821C8299249A9468011D
:1046E000EFEFCE1ADE0AC8010E949D3A89831A8232
:1046F000882309F497C0813009F088C05801F2E09E
:10470000AF0EB11CC6010E949D3AC82E8A83882331
:1047100009F488C0C5010E949D3AD82E8FEF8C0DF8
:104720008330E0F4580123E0A20EB11CDB82DD20CF
:1047300029F060E0CE0101960E94DC1F8501CFCFF9
:104740000115B4E01B0709F46DC0C8010E949D3A31
:10475000811101C0DA940F5F1F4FB9CF8BEF8C0D21
:10476000833070F5C8010396DB825C01DD2031F3F4
:10477000580134E0A30EB11C0E949D3A8C8388231B
:10478000E9F20B811C8101304FEF140710F0102F5C
:10479000002756E0C51681F087E0C81649F0C80129
:1047A0000E941723AFE3BCE91197F1F700C00000A6
:1047B000C8010E94DF22C2CFC8010E941723BECFCA
:1047C000B4E0CB12BBCF5801E4E0AE0EB11CC8017F
:1047D00003960E949D3ADD2029F1882319F181502A
:1047E000990B989E9001999E300D11244D2D4150AA
:1047F000550BCA01820F931F019708F49FCFAFE9B1
:10480000BFE01197F1F700C00000F6CF6AE0CE01DB
:1048100001960E94DC1F560191CF81E00E94801A10
:104820000E942F1A80914802877009F43BCFD7016C
:1048300012968C91882309F435CF8091A50482FFCC
:1048400031CF82E00E94481A2DCF81E00E943B1AAE
:10485000E7CF82E0E3CF82E0F9CF81E080930001EF
:10486000E1CF8095482265C5552009F48EC4109388
:10487000E1010093E0010E94040960938E047093AB
:104880008F04809390049093910410929604109258
:1048900095044FC582FB882780F98EC55520F1F01D
:1048A00081708AC50E94F01DEAC50497813A91057E
:1048B00048F48A2D0E94000E552009F44DC40E9430
:1048C0009A19B0CF0E949A198FE39CE90197F1F7EA
:1048D00000C000008A2D0E94AF1EEECF9D819F5F19
:1048E0009D833FC5FC01208131810217130709F028
:1048F0002CC451102CC41092940480E00E94491ED4
:104900002BC4053F4CE51407C9F0A0F027E245EEA3
:1049100066EE063F8CE5180709F061C4C7010E94E6
:104920007F1F80CF27E245EE65EEF8CF26E241EE0D
:1049300060EEF4CF27E245EE64EEF0CF26E241EEE2
:1049400062EEECCF28E241E0EFCF053AFDE51F072C
:1049500009F45CC4C0F401363DE5130709F456C4FC
:1049600006314CE5140709F0BEC5809169028A7AC8
:1049700091E009F490E09093E201811123C189E272
:104980000E94000E9CCFC8018D5A9D45039740F7A9
:104990003DC48091A404806207303CE51307B9F15F
:1049A0008091A404806108304CE5140780F1809167
:1049B000A40480642CC00D305CE5150709F4C0C068
:1049C00090F48091A4048E7F0B309CE51907F9F0D8
:1049D0008091A4048C600C30ACE51A07C0F0809183
:1049E000A4048D7F14C00F30BCE51B0709F4B8C0C8
:1049F00008F4AAC00031FCE51F0709F4B5C0809196
:104A0000A4048F7B01312CE5120709F029C480939F
:104A1000A40426C40F3F3CE5130709F4B3C0A8F56E
:104A20000A3F5CE5150709F479C0C0F404319CE540
:104A3000190709F4B5C008F4A1C00531BCE51B078E
:104A400009F00EC48091A40482FB992790F921E01B
:104A5000922790FB82F990FB83F9D9CF0C3FECE5CC
:104A60001E0709F475C008F45DC00D3F2CE5120760
:104A700009F472C08091A50483600E3F3CE51307E2
:104A800009F0EEC38093A504EBC301364DE514078E
:104A900009F491C090F401308DE5180709F489C03C
:104AA00008F474C060E00230ADE51A0709F0D8C31D
:104AB0008EE090E00E94B13AD3C30D3ABDE51B07EA
:104AC000E9F060F49091A404892F8E7F90FF8160BB
:104AD000053AFDE51F0709F49ACFC2C30E3A2DE54A
:104AE000120751F10F3A3DE5130709F0B9C3909150
:104AF000A504892F877F93FF8860C4CF8091A50488
:104B00008860C0CF8091A404826081CF8091A4048A
:104B100084607DCF8091A404886079CF8091A504C2
:104B20008160B0CF8091A5048260ACCF0E94911AC1
:104B30008091A40480686BCF8091A504877FA2CF69
:104B40008091A4048B7F63CF8091A404877F5FCF83
:104B50008091A5048E7F96CF8091A5048D7F92CF02
:104B60008091A4048F7E53CF8091A4048F7D4FCF7A
:104B70000E94911A8091A4048F7749CF8091A40458
:104B8000837F45CF8091A5048C7F7CCF8091A50445
:104B9000982F909591708E7F892B90FB81F972CF21
:104BA0000E94911A9091A404892F97FB87F980584D
:104BB0002ECF61E07DCF9091A404892F8F7E94FF4A
:104BC000806125CF85E3DCCE85E331C481608093AD
:104BD000F30261E086950E945A1824CE4CE958E110
:104BE00066EA78E10E94F9091DCE46EA58E16CE9CF
:104BF00078E1F8CF4DE856E163E876E1F3CF49E696
:104C000056E166E776E1EECF4FE456E16CE576E1FA
:104C1000E9CF4CE556E16FE476E1E4CF49EA56E1AD
:104C200067E976E1DFCF61E081E0D5CF65E082E042
:104C30000E94B118F7CD68E086E0FACF64E18FE01A
:104C4000F7CF67E185E1F4CF62E289E1F1CF61E07E
:104C500083E2C1CF0E94911AAFEFB4E3ECE0A15020
:104C6000B040E040E1F700C000000E940F10DACD34
:104C70008091A50482FB882780F991E089270E9412
:104C8000641AF701868197810097C1F10E942E0C6A
:104C90008C01F701C280B580B2943FE0B3228091CD
:104CA00048028770C1F0AC2CCC20B1F0812F807FFE
:104CB000803421F080E2800F883068F08091A50474
:104CC00082FF09C082E00E94481A809148028770E2
:104CD000AA24A3948111A12C912E92942FE09222C8
:104CE000FBE0F91508F488C0E92DF0E0E750F54C39
:104CF0000C94193A81E0C3CF80E0C1CF828100815A
:104D00001181882369F0C8010E942F14D82E682FC2
:104D1000C8010E94AF0EB8018D2D0E940514B6CFB8
:104D2000C8010E94650ED82EF6CF212F2F70D22EEB
:104D3000107F19F0D29490EFD922CC20B9F0DD2069
:104D400069F080E2800F883010F0011109C0809175
:104D50006902D82AD09269020E949A19802F4AC00B
:104D60008091DF03D82AD092DF03F6CF802F0E94F4
:104D7000F01DDD2009F440C080E2800F883010F083
:104D8000011104C08D2D0E94C70D06C0D0948091E2
:104D9000DF03D822D092DF030E949A192DC0312F51
:104DA0003F70D32E107F103219F0D29480EFD822AA
:104DB000002381F0013009F493C0CC2009F49CC099
:104DC000BB2009F469C0F701858180FFC7CF8F70D0
:104DD000858362C08091A50482FD37C0CC2079F123
:104DE000DD2039F080916902D82AD09269020E94B0
:104DF0009A1980E00E94AF1EA92DA850BB0B1497F2
:104E000010F40E943C09AA20A9F08091480280FD7C
:104E100011C0F70112828595859585950E94801AAB
:104E2000C7010E943D23809148028595859585950F
:104E30000E943B1A60E0C7010E949C1433CC80E0C2
:104E40000E94F01DDD20C1F29DCFCC2049F1B110B0
:104E500004C080916C028D2920C041E0B41210C0C2
:104E600082FFCACF80916C02D82AD81629F20E94FC
:104E70004E1890936B0280936A02D0926C02BCCF62
:104E800055E0B512E6CF0E94BC0D9091E3018D2D47
:104E9000892B89138093E3018D2D0E94E61DACCFF1
:104EA000B11003C00E94BC0D12C081E0B81213C043
:104EB000809169028D2109F49FCF0E94BC0D9091D1
:104EC000E3018D2D8095892389138093E3018D2D36
:104ED0000E94DF1D91CF95E0B91609F48DCFE2CF86
:104EE000CC2029F0A5E0AB1508F486CFD5CFB4E0EF
:104EF000BB1508F481CFEBCFBB2049F3093309F090
:104F00001FC1FFEF27EE33E0F15020403040E1F7C2
:104F100000C00000802F0E94F01D6ECF812F86956B
:104F20008695837061F0813009F066CFC801937077
:104F3000C11002C090E080E00E9410095DCFC8015E
:104F40009370C11002C090E080E00E94260954CF07
:104F5000802FCC2029F00E946A0B0E94C1184CCFF0
:104F60000E94A50AFACF812F837089F5C11044CF22
:104F7000402F429546954770440F440F802F8F7005
:104F8000042E01C0880F0A94EAF7202F207104FF35
:104F900007C02FE030E001C0220F4A95EAF72095C4
:104FA000169516951370123069F050F430916D0219
:104FB000113029F0822B83230E948C1A1DCF832B62
:104FC000822BFACF282B80916D028227F5CF869510
:104FD000CC2011F0812F8170882309F40DCF402F50
:104FE000429546954770440F440F802F8F70042ED2
:104FF00001C0880F0A94EAF7202F207104FF07C030
:105000002FE030E001C0220F4A95EAF7209516956F
:1050100016951370123069F050F43091D8041130A5
:1050200029F0822B83230E942A1AE6CE832B822B1F
:10503000FACF282B8091D8048227F5CF1F70CC207F
:1050400029F0812F0E94801A802F27CF802F0E9465
:10505000DF1D812F0E943B1ACFCE023F89F160F401
:10506000003FB9F0013F81F0CC2009F464C0B110D9
:1050700075CE812F8F7128C0033F49F1043FA1F7FE
:105080008091A50482FD2FC0812F8F71CC2011F358
:105090001BC0CC2081F094E09B1508F4ADCE1F71AD
:1050A00081E090E0012E01C0880F0A94EAF7909108
:1050B000D8048927B8CFA5E0AB1508F49DCEEFCF73
:1050C000812F8F71C110C6CF0E94801A95CE80E0CB
:1050D000CC2009F4A8CF1F7181E0012E01C0880FF8
:1050E0000A94EAF7A0CFCC20C9F0809148028770DB
:1050F000843041F40E94CE0D812F8F710E943B1AA3
:10510000A12C7ACEB4E0BB15D8F31F71812F0E9479
:10511000801A63E0812F0E94AB20F2CFE4E0EB1510
:1051200030F40E94CE0D64E0812F8F71F4CF81E0C6
:105130000E94481AE5CFB110E1CE812F8F718ACF3E
:105140008FE39CE90197F1F7E3CE552029F0DC01CC
:1051500018968C9185FFD1CB033FBCE51B0709F462
:10516000E5CB08F0CECB083DFCE51F0709F4DACB10
:10517000093D2CE5120709F4E5CB073D3CE5130793
:1051800071F526E241EE61EEC9CB8091E00190918C
:10519000E1010817190781F41092E1011092E00172
:1051A00010928E0410928F04109290041092910429
:1051B000109296041092950480919704909198040F
:1051C000009751F2A8E08A16910408F08BCB642D69
:1051D0000E949A098111C0CF81E00E94491ED70127
:1051E00012968C91882309F418C11092DB040330C5
:1051F000BDE51B0708F0A9CB0A3FECE51E0730F41C
:10520000C80182509C45449708F0AACB0E94E5143F
:105210009093A5048093A40402314CE5140709F48B
:10522000A7CC08F0F7CB09308CE5180709F47ECC41
:1052300008F0C1CB0530ACE51A0709F46BCC08F0D7
:10524000A8CB0330ECE51E0709F45CCC08F05ECC7B
:105250008091A404816002302CE5120709F4D7CBB9
:105260006091A4041091A50484E090E00E94B13AFA
:10527000612F82E290E00E94B13A0E94911AD2CA54
:105280000031BFE51B0709F4C8CA0131EFE51E076D
:1052900009F4DFCA0F35EDE51E0709F4DECA003652
:1052A000FDE51F0749F00E352DE51207F9F4809151
:1052B0000001882309F4D1CA1092000180E00E9405
:1052C000491EB0CA61E0C7010E949C148C01D7013D
:1052D00012965C905110EAC90031FFE51F0709F4EE
:1052E000B4CA01312FE5120709F4B5CA8091000153
:1052F000882309F431CF480130EE831A9108409099
:105300006C028091E301482A80916902482A48E0B2
:105310008416910408F0A8CA98012770332781E009
:1053200090E001C0880F2A95EAF7552009F499CA40
:10533000482AD7018D919C910E94650E21E030E0B2
:10534000190102C0220C331C8A95E2F7E091970400
:10535000F0919804FF83EE836090E0017090E1018A
:105360001D822D81E22FF0E0EE0FFF1FE75BFC4F67
:10537000C080D180C114D10409F41ECF411005C0F2
:10538000D60112968C918111A9CAF601838190E011
:1053900082219321892B09F4A1CA8085982F9770C7
:1053A00009F487E0F8E08F16910408F077CA5520D9
:1053B00009F470CA86958170882309F48FCAD601D2
:1053C000AD90BC900A151B0519F4552009F486CA46
:1053D000EE81FF81CE16DF0609F480CAD6011D9644
:1053E000ED91FC91309721F08081882309F476CAF1
:1053F000642DC6010E949A09882309F46FCA0A1510
:105400001B05C1F401151105C9F0511019C0A614EE
:10541000B70409F063CA512C13C00631BCE51B0761
:1054200009F07FC08091E2018111CECB89E20E9418
:10543000D50D45CAA114B10451F7512CB12CA12CA2
:1054400080E00E94491ED0929804C092970481E0A7
:1054500080939404D60115968C91809392045110F8
:105460000EC0AB2861F0F601808191819C0124502F
:105470003109213A310508F015CA0E94D50DD6012F
:105480001696AD90BC90C5019A9581159F4110F478
:10549000E0EEBE2277247394C5010197803B9D45C1
:1054A00008F0712CD6011996ED91FC911A9730975E
:1054B00031F01B966D917C9181E0099578227720DF
:1054C00079F0F601868197810E94DC0E8093930427
:1054D000C501F8E08F16910408F0E7C90E94490958
:1054E0000E949A19E9C90A35EDE51E0709F402CCB4
:1054F00068F401152CE5120709F4ACCB0E3D1C45F0
:1055000009F0BFCB0E94CB160E94B41D0C354DE5AF
:10551000140709F4ADCB08F4EFCB073A1D45A1F30E
:10552000B0CB8091690282720C3C9CE5190709F4AA
:1055300075CB08F063C0063CBCE51B0709F45ACBE9
:10554000C8F5033CFCE51F0709F448CB20F5023CF5
:105550003CE5130709F095CB8091F30280FF36CB31
:105560008E7F8093F3026091F3027091F402809138
:10557000F5029091F6020E94C3151092CB025FEFE4
:1055800080E792E0515080409040E1F700C0000079
:105590000E94411047C9043C4CE5140709F425CB8F
:1055A000053C5CE5150709F06CCB43E856E16DE876
:1055B00076E118CB093C9CE5190709F425CB78F472
:1055C000073CBCE51B0709F41ACB46E756E169E640
:1055D00076E1083CECE51E0709F404CB52CB0A3C0B
:1055E000FCE51F0709F415CB47E956E169EA76E1C6
:1055F0000B3C2CE5120709F4F5CA43CB013D3CE511
:10560000130709F41BCBA0F40E3C5CE5150709F465
:105610000DCB08F408CB0F3C9CE5190709F40BCB24
:105620006EE089E0003DACE51A0709F401CB29CB17
:10563000043DBCE51B0709F407CB68F4023DFCE51B
:105640001F0709F4FECA61E088E1033D2CE512075B
:1056500009F4C1CA16CB053D3CE5130709F4F7CAA6
:105660000D35100709F4DEC80CCBCF93DF93809182
:105670000102807F09F049C08091FE01882309F46E
:1056800044C080914502D09104026091FC01709168
:10569000FD01A091FF01B0910002C62FC723D817CA
:1056A000A1F190E0109711F0CF3F19F401968770A7
:1056B000F6CF9C0143E0220F331F4A95E1F7F90131
:1056C000EB5FFD4F41814713F1CF40814613EECF91
:1056D00042814111EBCF438154814A1B5B0B483C13
:1056E000510520F7809101028F7080618093010243
:1056F000F901E65FFD4F80818F70806180838CEFC0
:1057000091E00E943D230E94340EDF91CF910895D5
:10571000A5E1B0E0EEE8FBE20C94A6398C0185E04F
:10572000F801DE01519601900D928A95E1F7F8019A
:10573000E2806CEFA62E61E0B62E6091FF017091C1
:1057400000026115710509F45CC19091FC01409162
:10575000FD01892F84238F3F09F453C120813181BA
:10576000C380D480F090FE01F601E61BF70BFF200A
:1057700009F411C180910102582F507FE83CF105D6
:1057800008F0C4C0511175C0FE2C43131EC0921303
:105790001CC06091020270910302F801468157819A
:1057A0006417750791F4E11010C08F7080618093C9
:1057B0000102C5010E943D2380910102F801858309
:1057C0008F2D6596EAE00C94C239C114D10429F0FA
:1057D000822F83238F3F09F02FC180E0F82FF170D3
:1057E000DF2E80FF3CC0809145024091040284136B
:1057F00015C0298B3A8B89899A890E945E14292FBA
:1058000022952F702230F8F0243020F59F70F9F0A7
:10581000F8019581907FD9F4D12C1FC090E0FC0154
:1058200053E0EE0FFF1F5A95E1F7EB5FFD4F5181FB
:10583000351306C05081251303C05281E5120FC0F5
:1058400001968770D4CF9F7011F0882329F3805E72
:10585000883010F3C8010E943D23FD2CB1CFEE200B
:1058600009F4AECF80910102816080930102F12C96
:10587000A7CF43131BC0921319C04091020250914D
:105880000302F801268137814217530779F4E110AA
:105890000DC08583C8010E943D2388E0F801ACEF6C
:1058A000B1E001900D928A95E1F78ACFC8010E947C
:1058B0006B14882339F1EE2029F1809101028032A6
:1058C000A0F02091FC013091FD013A8729871B86C9
:1058D000DD86CC868E878091020290910302988BA0
:1058E0008F87CE0109960E943D2388E0F801ACEF36
:1058F000B1E001900D928A95E1F70E94352BFF24CB
:10590000F3945ECFC8010E943D23F9CF51110AC024
:105910008CEF91E00E943D2388E0F50111928A9579
:10592000E9F7A5CF431318C0921316C040910202A5
:1059300050910302F801268137814217530761F421
:10594000E1100AC08583C8010E943D2388E0F5016B
:1059500011928A95E9F734CFC8010E946B1488230D
:1059600089F2EE2079F280910102803208F4BDCFF5
:105970002091FC013091FD013A8329831B82DD8255
:10598000CC828E83809102029091030298878F834C
:10599000CE010196A8CFE83CF105C0F6FE2CEE2022
:1059A00009F4B0CF43131FC092131DC0209102020F
:1059B00030910302F801868197812817390799F4FD
:1059C0009091010290FD69CF907F09F466CF80919C
:1059D00001028583903F09F45DCF982F907F905FFF
:1059E0008F70892B56CFC8010E946B1481117DCF17
:1059F00080910102816080930102C8010E943D23D1
:105A0000DFCEEE2009F47ECFC8010E946B14F82E81
:105A1000882309F477CF88E0F801ACEFB1E001907A
:105A20000D928A95E1F78091FC019091FD010E9411
:105A30005E140E94352BC4CE81E08E25CFCEA0E12E
:105A4000B0E0E5E2FDE20C94AE3929873A874B8756
:105A50005C876D877E878F87988BCE0109960E9421
:105A6000882B811112C088E0FE013996DE01119663
:105A700001900D928A95E1F78C859D85892B29F0FF
:105A800089859A8589238F3F81F580914502909180
:105A90000402891317C06096E2E00C94CA3993E0BF
:105AA000AA0FBB1F9A95E1F7AB5FBD4F98E0FE01CF
:105AB000319601900D929A95E1F7809304020E942D
:105AC000340EE3CFB8E08B9FC00111248B5F9D4F54
:105AD0000E94882B8823F9F28091450290E001967C
